:100000000C94B2000C94DA000C94DA000C948E0577
:100010000C94B2050C94D6050C94DA000C94DA001A
:100020000C94DA000C94DA000C94DA000C94DA00E8
:100030000C94DA000C94DA000C94DA000C94DA00D8
:100040000C94E2070C94DA000C94310A0C94740AB4
:100050000C94DA000C94DA000C94DA000C94DA00B8
:100060000C94DA000C94DA0000C2010001001100C7
:1000700011000C0000E100000A002500250021000D
:10008000009600001900390039003600127A00008D
:100090001F004600460044008070000022004D0012
:1000A0004D004A00004B00003600750075007200DC
:1000B000403800004A009C009C0099008025000008
:1000C0007200EC00EC00E900C0120000E900DA0167
:1000D000DA01D70160090000D701B603B603B30304
:1000E000B0040000B3036E076E076B0758020000F0
:1000F0006E07DC0EDC0ED80E2C010000DC0EC11DDC
:10010000C11DBE1D0000000700020100000304061F
:1001100000000000000000000102040810204080E0
:100120000102040810200102040810200404040441
:100130000404040402020202020203030303030391
:100140000000000023002600290000000000250018
:1001500028002B0000000000240027002A001404BF
:10016000320B1B0411241FBECFEFD8E0DEBFCDBF82
:1001700012E0A0E0B1E0E8E9F8E102C005900D92DC
:10018000A032B107D9F714E0A0E2B2E001C01D929D
:10019000AF34B107E1F711E0C2E6D1E004C0229725
:1001A000FE010E943B0CCE35D107C9F70E94880B97
:1001B0000C943F0C0C94000040E052EC61E070E0C5
:1001C00085EA93E00E94AF0A85EA93E00E94300B33
:1001D0008823D1F340E051EE60E070E080E292E0ED
:1001E0000C947806BF92CF92DF92EF92FF920F931A
:1001F0001F93CF93DF938C01FC01F0806F2D80E281
:1002000092E00E941F05E801C75FDE4FEF2DF0E08E
:10021000E050FF4F80818883F801F1806F2D80E2EC
:1002200092E00E941F05E881EF25F0E0E050FF4FCB
:1002300080818883F801F2806F2D80E292E00E9435
:100240001F05E881EF25F0E0E050FF4F80818883B3
:10025000F801F3806F2D80E292E00E941F05E88193
:10026000EF25F0E0E050FF4F80818883F801F480B3
:100270006F2D80E292E00E941F05E881EF25F0E0FB
:10028000E050FF4F80818883F80184819581A681A9
:10029000B781692F7A2F8B2F9927F62E80E292E073
:1002A0000E941F05E881EF25F0E0E050FF4F8081BC
:1002B0008883F80184819581A681B781BD01882753
:1002C0009927F62E80E292E00E941F05E881EF2533
:1002D000F0E0E050FF4F80818883F80184819581B0
:1002E000A681B7816B2F772788279927F62E80E282
:1002F00092E00E941F05E881EF25F0E0E050FF4FFB
:100300008081888360E080E292E00E941F05E8819E
:10031000F0E0E050FF4F8081888360E080E292E06F
:100320000E941F05E881F0E0E050FF4F8081888344
:10033000F801828193810B9788F4F801E75FFE4F03
:10034000608180E292E0DF91CF911F910F91FF9049
:10035000EF90DF90CF90BF900C941F056801FAE0FA
:10036000CF0ED11C76010FC0F701B1907F016B2D2C
:1003700080E292E00E941F05E881EB25F0E0E0506A
:10038000FF4F808188832E2D2C1930E0F801828167
:1003900093810A972817390738F3CFCFCF93DF938C
:1003A000CDB7DEB7CA50D1400FB6F894DEBF0FBE4E
:1003B000CDBF2CE329836A832AE030E03C832B8382
:1003C000FC0184819581A681B7818D839E83AF8353
:1003D000B887CE0101960E94F200C65FDE4F0FB6CD
:1003E000F894DEBF0FBECDBFDF91CF910895CF93BC
:1003F000DF93CDB7DEB7CA50D1400FB6F894DEBF59
:100400000FBECDBF8CE3898382E28A838FE290E0C6
:100410009C838B838AE09CEDA1EDBAEC8D839E8357
:10042000AF83B887FE013B96CE01C0961192E817C4
:10043000F907E1F780914C038FA7CE0101960E9446
:10044000F2000E942C0860934D0370934E0380933A
:100450004F0390935003C65FDE4F0FB6F894DEBF94
:100460000FBECDBFDF91CF910895FB019091510355
:10047000933009F454C020F49130B1F038F509C03C
:10048000953009F4C5C008F49EC0963009F0E3C069
:10049000DBC08C3309F0DFC091E09093510380837F
:1004A00084EB80935203D7C0A0915203A827B0E0F9
:1004B000A050BF4F9C9190935203982F987F9032F9
:1004C00029F592E090935103818326C0A0915203B5
:1004D000A827B0E0A050BF4F9C91909352039091F9
:1004E00053039F5F90935303923018F482831382D7
:1004F000B2C0382F20E082819381820F931F9383B3
:1005000082830A978F3F910521F018F010925103D2
:10051000A2C083E080935103109253039CC0A0912A
:100520005203A827B0E0A050BF4F9C919093520374
:10053000209153032F5F20935303223099F020F42E
:10054000213009F088C006C02330A1F0243009F022
:1005500082C023C090E0A0E0B0E084839583A683AE
:10056000B78379C090E0A0E0B0E0BA2FA92F982F10
:10057000882706C090E0A0E0B0E0DC01992788273A
:100580004481558166817781480F591F6A1F7B1FFF
:1005900044835583668377835EC090E0A0E0B0E03B
:1005A000B82FAA27992788274481558166817781AA
:1005B000480F591F6A1F7B1F4483558366837783C7
:1005C00020935103A9CFA0915203A827B0E0A050D7
:1005D000BF4F9C9190935203909153039F5F9093D0
:1005E0005303913019F09230B1F503C08087118622
:1005F00032C0382F20E080859185820F931F91872C
:100600008087828193810A9709F41CC085E082CF9C
:10061000A0915203A827B0E0A050BF4F9C919093A7
:100620005203209153032F5F2093530330E0DB01EB
:10063000A20FB31F19968C93828193810A97281772
:10064000390748F086E066CFDB01A75FBE4F8C9389
:1006500087E08093510380915103873011F080E04F
:10066000089510925103DF01A75FBE4F909152038E
:100670008C919813F4CF82810895CF92DF92EF92FC
:10068000FF921F93CF93DF93EC014C815D816E81CC
:100690007F814A358BEB580787E3680787E6780741
:1006A00039F04436594D604E774D09F047C01CC0B3
:1006B0008EA5823031F0833051F081113FC081E04E
:1006C00001C083E080934C030E94F70137C0809300
:1006D0004C030E942C08609354037093550380933D
:1006E0005603909357032AC00E942C08609354032A
:1006F0007093550380935603909357036A8D7B8DB7
:100700008C8D9D8D0E94950B70933D0260933C02F1
:100710006E8D7F8D88A199A10E94950B70933F02E9
:1007200060933E026AA17BA18CA19DA10E94950BC2
:10073000709341026093400211E001C010E0898192
:10074000823221F463E2CE010E94CE01C0905403B4
:10075000D0905503E0905603F090570380E1C80E07
:1007600087E2D81EE11CF11C0E942C08C616D70691
:10077000E806F90618F410924C0311E0C0904D03FE
:10078000D0904E03E0904F03F090500388EEC80ED7
:1007900083E0D81EE11CF11C0E942C08C616D70667
:1007A000E806F90610F40E94F701812F90E0DF912E
:1007B000CF911F91FF90EF90DF90CF90089580E24E
:1007C00092E00E941F0462E472E00E9435028823D6
:1007D00021F082E492E00C943D03089580E292E0DF
:1007E0000E946C04892B11F00E94DF0360913C028F
:1007F00070913D024AE050E085EA93E00E947B0957
:1008000060913E0270913F024AE050E085EA93E039
:100810000E947B0960914002709141024AE050E0E1
:1008200085EA93E00C947B0920E04BE06AE080E2EB
:1008300092E00C94480680E292E00C9442072091EA
:100840009A0330919B0328173907C1F490915803FC
:1008500080915903981791F0E0915803F0E0E65A1F
:10086000FC4F80812091580330E02F5F3F4F2F7362
:10087000332720935803282F30E002C02FEF3FEF9B
:10088000C901089520919A0330919B0328173907D5
:1008900081F49091580380915903981751F0E09199
:1008A0005803F0E0E65AFC4F2081332727FD3095AE
:1008B00002C02FEF3FEFC901089520919A033091B4
:1008C0009B032817390739F48FB7F894109259030E
:1008D000109258038FBF089520919A0330919B0383
:1008E0002817390779F4809159032091580390E033
:1008F000805C9F4F821B910960E470E00E94EF0BC7
:100900009C0102C020E030E0C9010895DC0151964D
:10091000ED91FC915297208150968C918095822385
:100920008083089520E001972FEF8F3F9207D9F73A
:10093000089520919A0330919B032817390789F075
:10094000FC01238D2E7F238F2FB7F894109259032B
:100950001092580390939B0380939A032FBF81E0DA
:10096000089580E00895EF92FF920F931F93CF9325
:10097000DF93EC018B8DEE85FF859D8581FF04C0A3
:100980008081892329F445C08081892309F041C0F1
:100990008B899C890E94920408E010E0EE24E39485
:1009A000F12C8D899E890E949204EE85FF858081BD
:1009B0009D85892311F0FE2803C08E2D8095F82295
:1009C000EE0C0150110969F78F89988D0E949204ED
:1009D0008B8D81FDF094809159032091580390E014
:1009E00001968F73992730E08217930779F0E09191
:1009F0005903F0E0E65AFC4FF0828091590390E0F1
:100A000001968F7399278093590303C08B8D816062
:100A10008B8FDF91CF911F910F91FF90EF900895F1
:100A2000611102C00C948604DC015196ED91FC9199
:100A30005297208150968C91282B20830895DF9225
:100A4000EF92FF920F931F93CF93DF93EC01E62E6B
:100A5000898D9A8D892B39F481E090E09B838A837C
:100A600020E030E049C0DFB6F8946B8D6695617088
:100A7000CE010E941005898D9A8D05960E949204E0
:100A80008B8D08E010E0FF24F39481FF17C08F2DB9
:100A90008E2121F0CE010E94860404C061E0CE01C7
:100AA0000E941005898D9A8D0E949204FF0C0150BE
:100AB000110969F7CE010E94860417C08F2D8E217F
:100AC00029F061E0CE010E94100503C0CE010E9412
:100AD0008604898D9A8D0E949204FF0C01501109A1
:100AE00069F761E0CE010E941005DFBE898D9A8D05
:100AF0000E94920421E030E0C901DF91CF911F9163
:100B00000F91FF90EF90DF90089580919A0390915C
:100B10009B03009711F00C94B30408951F920F9259
:100B20000FB60F9211242F933F934F935F936F93C0
:100B30007F938F939F93AF93BF93EF93FF930E9405
:100B40008505FF91EF91BF91AF919F918F917F911B
:100B50006F915F914F913F912F910F900FBE0F902A
:100B60001F9018951F920F920FB60F9211242F937A
:100B70003F934F935F936F937F938F939F93AF9325
:100B8000BF93EF93FF930E948505FF91EF91BF9173
:100B9000AF919F918F917F916F915F914F913F9115
:100BA0002F910F900FBE0F901F9018951F920F92CC
:100BB0000FB60F9211242F933F934F935F936F9330
:100BC0007F938F939F93AF93BF93EF93FF930E9475
:100BD0008505FF91EF91BF91AF919F918F917F918B
:100BE0006F915F914F913F912F910F900FBE0F909A
:100BF0001F9018951F93CF93DF93EC01162F61E0A0
:100C0000812F0E94730761E0812F0E94AB07812F23
:100C100090E0FC01E85EFE4FE491E88BFC01E45DAE
:100C2000FE4FE491F0E0EE0FFF1FE65BFE4F859173
:100C30009491898B9A8BDF91CF911F9108951F9387
:100C4000CF93DF93EC01162F60E0812F0E94730792
:100C50008B8D81FD04C061E0812F0E94AB071C8752
:100C6000812F90E0FC01E85EFE4FE491ED87FC01EE
:100C7000E45DFE4FE491F0E0EE0FFF1FE05CFE4FFD
:100C8000859194918E879F87DF91CF911F910895D1
:100C9000FF920F931F93CF93DF93EC01F62E522F09
:100CA0001B821A8208EE13E020E030E00C831D83E3
:100CB0002E833F8384E092E0998388831C8A1B8A79
:100CC0001E8A1D8A188E1F8A1A8E198E8B8D8E7F12
:100CD00050FB81F98B8F642FCE010E94FA056F2D96
:100CE000CE01DF91CF911F910F91FF900C941F06C1
:100CF000FF920F931F93CF93DF93EC011A8E198EFF
:100D0000188E1F8A1E8A1D8A1C8A1B8AA0E0B0E0EA
:100D10002CE0F22EFA9EC001FB9E900D1124FC01E6
:100D2000E859FF4F05911591259134910417150746
:100D300026073707E9F4FC01E459FF4F2591349168
:100D40002B8B3C8BFC01E259FF4F259134912D8B6D
:100D50003E8BFC01E059FF4F259134912F8B388F4A
:100D60008E589F4FFC0185919491898F9A8F05C071
:100D70001196AD30B10509F0CDCF8F89988D892BB3
:100D800009F449C03C85363108F041C04091680003
:100D9000383068F081E090E03E3010F480E090E080
:100DA00021E030E001C0220F8A95EAF701C024E07B
:100DB000242B209368003C85383038F03E3040F0DA
:100DC000363148F0E0E0F0E008C0EDE6F0E005C0C4
:100DD000EBE6F0E002C0ECE6F0E04081383040F4B1
:100DE00081E090E0282F01C0220F3A95EAF70DC06C
:100DF000832F90E03E3010F4089701C00E9721E059
:100E000030E001C0220F8A95EAF7242B2083898DD8
:100E10009A8D0E949204CE01DF91CF911F910F9184
:100E2000FF900C949904FC014485463150F54830FC
:100E300028F04E3030F4EBE6F0E005C0EDE6F0E0EF
:100E400002C0ECE6F0E05081483040F481E090E0F0
:100E5000042E01C0880F0A94EAF710C0242F30E056
:100E60004E3018F42850310902C02E50310981E06B
:100E700090E0022E01C0880F0A94EAF7809585233E
:100E80008083089524E032E0FC01318320830C94B8
:100E90001307833069F028F48130A1F0823011F516
:100EA00014C08630B1F08730C1F08430D9F404C06A
:100EB000809180008F7703C0809180008F7D809328
:100EC0008000089584B58F7702C084B58F7D84BD7E
:100ED00008958091B0008F7703C08091B0008F7D1E
:100EE0008093B0000895CF93DF9390E0FC01E85E1B
:100EF000FE4F4491FC01E45DFE4F8491882341F153
:100F000090E0880F991FFC01EC5AFE4F2591349117
:100F1000D901865B9E4FFC0185919491C82FD92FF2
:100F20009FB7F8948C91611106C0409584238C93EF
:100F30008881842308C0623041F4242F20958223C5
:100F40008C938881842B888302C0842B8C939FBFD1
:100F5000DF91CF9108950F931F93CF93DF931F924B
:100F6000CDB7DEB7282F30E0F901EC5FFE4F84915A
:100F7000F901E85EFE4F1491F901E45DFE4F049122
:100F80000023D1F0882321F069830E9449076981F9
:100F9000E02FF0E0EE0FFF1FE65BFE4F859194918E
:100FA000DC019FB7F8948C91611103C010958123E7
:100FB00001C0812B8C939FBF0F90DF91CF911F9128
:100FC0000F9108951F920F920FB60F9211242F9335
:100FD0003F938F939F93AF93BF9380919C03909186
:100FE0009D03A0919E03B0919F033091A403232FF2
:100FF0002D5F2D3720F40196A11DB11D05C0232FB3
:101000002A570296A11DB11D2093A40380939C032F
:1010100090939D03A0939E03B0939F038091A003A0
:101020009091A103A091A203B091A3030196A11DE9
:10103000B11D8093A0039093A103A093A203B0934A
:10104000A303BF91AF919F918F913F912F910F90EB
:101050000FBE0F901F9018950F931F938FB7F894A2
:1010600000919C0310919D0320919E0330919F035A
:101070008FBFB801C9011F910F910895789484B56D
:10108000826084BD84B5816084BD85B5826085BD84
:1010900085B5816085BDEEE6F0E08081816080836A
:1010A000E1E8F0E01082808182608083808181604D
:1010B0008083E0E8F0E0808181608083E1EBF0E014
:1010C000808184608083E0EBF0E0808181608083B8
:1010D000EAE7F0E0808184608083808182608083A1
:1010E0008081816080838081806880831092C100CC
:1010F0000895CF92DF92EF92FF920F931F93CF93B9
:10110000DF936C01EB017A01E60EF71E00E010E0C0
:101110000BC06991D601ED91FC910190F081E02D19
:10112000C6010995080F191FCE15DF0591F7C801F3
:10113000DF91CF911F910F91FF90EF90DF90CF90B3
:1011400008956115710581F0DB010D900020E9F72C
:10115000AD0141505109461B570BDC01ED91FC914B
:101160000280F381E02D099480E090E00895DC0195
:10117000ED91FC910190F081E02D09940F931F9364
:10118000CF93DF93EC016DE00E94B7088C016AE019
:10119000CE010E94B7089C01200F311FC901DF91C9
:1011A000CF911F910F9108954F925F926F927F920E
:1011B0009F92AF92BF92CF92DF92EF92FF920F93E6
:1011C0001F93CF93DF93CDB7DEB7A1970FB6F894F7
:1011D000DEBF0FBECDBF5C016A017B01922E19A25A
:1011E00081E0821710F08AE0982E8E010F5D1F4F6C
:1011F000492C512C612C712CC701B601A30192011D
:101200000E94030C8C2D929E80191124015011090B
:101210008A3014F4805D01C0895CF8018083690123
:101220007A01C114D104E104F10431F7B801C50118
:101230000E94A108A1960FB6F894DEBF0FBECDBFE5
:10124000DF91CF911F910F91FF90EF90DF90CF90A2
:10125000BF90AF909F907F906F905F904F90089558
:10126000CF92DF92EF92FF920F931F93CF93DF9372
:10127000EC016A017B012115310579F4E881F981DE
:101280000190F081E02D642FDF91CF911F910F919C
:10129000FF90EF90DF90CF9009942A30310519F438
:1012A00077FD0EC02AE0B701A601CE01DF91CF91F4
:1012B0001F910F91FF90EF90DF90CF900C94D40886
:1012C0006DE20E94B7088C0144275527BA014C19DA
:1012D0005D096E097F092AE0CE010E94D408080F3B
:1012E000191FC801DF91CF911F910F91FF90EF90CF
:1012F000DF90CF9008950F931F93CF93DF93EC016E
:101300009A01AB01662757FD6095762F0E94300940
:101310008C01CE010E94BE089801280F391FC90117
:10132000DF91CF911F910F910895FC0184859585E0
:10133000FC01E05CFF4F20813181FC01EE5BFF4F3F
:1013400080819181281B390B2F733327C9010895A0
:10135000FC0184859585FC01E05CFF4F4081518153
:10136000FC01EE5BFF4F208131814217530741F0B2
:101370000190F081E02DE80FF91F208130E002C0DC
:101380002FEF3FEFC9010895FC0184859585FC018D
:10139000E05CFF4F40815181FC01EE5BFF4F2081FB
:1013A00031814217530781F0A081B181A80FB91F85
:1013B0008C91208131812F5F3F4F2F7333273183F1
:1013C0002083282F30E002C02FEF3FEFC90108959E
:1013D000FC0181A1882329F0A489B5898C9186FF1D
:1013E000FBCF11A20895CF93DF93FC0126853785AB
:1013F000D901A05CBF4F8D919C91119701968F737D
:101400009927E901CE5BDF4F488159818417950701
:10141000D9F30D90BC91A02DA20FB31F6C93A6859C
:10142000B785A05CBF4F11969C938E93A689B78910
:101430002C9181E090E0078C02C0880F991F0A94DC
:10144000E2F7282B2C9381E081A30488F589E02D15
:1014500080818064808381E090E0DF91CF91089566
:1014600008951F920F920FB60F9211242F933F935E
:101470004F938F939F93EF93FF938091C00082FDD2
:101480001CC04091C60080914B0490914C04019681
:101490008F73992720914D0430914E048217930742
:1014A00071F0E0914B04F0914C04E55FFB4F4083F9
:1014B00090934C0480934B0402C08091C600FF912E
:1014C000EF919F918F914F913F912F910F900FBE70
:1014D0000F901F90189585EA93E00E949509892B3B
:1014E00011F00C94300A08951F920F920FB60F92CC
:1014F00011242F933F938F939F93EF93FF9320910A
:101500000704309108048091090490910A04281777
:10151000390731F48091C1008F7D8093C10014C0E0
:10152000E0910904F0910A04E953FC4F2081809175
:10153000090490910A0401968F73992790930A04E5
:10154000809309042093C600FF91EF919F918F91A2
:101550003F912F910F900FBE0F901F901895CF9233
:10156000DF92EF92FF92CF93DF93EC016A017B0150
:10157000411581EE580761057105F9F0EC89FD8987
:1015800081E090E008A002C0880F991F0A94E2F75A
:10159000808360E079E08DE390E0A70196010E94EE
:1015A000030C21503109410951095695479537954A
:1015B0002795211580E1380798F0EC89FD89108284
:1015C00060E874E88EE190E0A70196010E94030CA8
:1015D000215031094109510956954795379527956D
:1015E000E889F9893083EA89FB89208319A2EE8989
:1015F000FF89408181E090E09C010C8C02C0220FA9
:10160000331F0A94E2F7422B4083EE89FF89408121
:101610009C010D8C02C0220F331F0A94E2F7422B6B
:101620004083EE89FF8940819C010E8C02C0220F0D
:10163000331F0A94E2F7422B4083EE89FF89208111
:101640000F8C02C0880F991F0A94E2F780958223BD
:101650008083DF91CF91FF90EF90DF90CF9008953E
:1016600081E008951092A8031092A70388EE93E0FA
:10167000A0E0B0E08093A9039093AA03A093AB03EA
:10168000B093AC0384E192E09093A6038093A5030A
:101690008BE094E09093B2038093B10387EC93E0E6
:1016A0009093B4038093B30385EC90E09093B603DA
:1016B0008093B50384EC90E09093B8038093B703D4
:1016C00080EC90E09093BA038093B90381EC90E0B2
:1016D0009093BC038093BB0382EC90E09093BE0395
:1016E0008093BD0386EC90E09093C0038093BF038A
:1016F00084E08093C10383E08093C20387E08093FA
:10170000C30385E08093C40381E08093C5030895FB
:101710000E943E080E94DC00CBE6DAE00E94EE0365
:101720002097E1F30E946B0AF9CF04D06894B111BD
:1017300050C0089533D088F09F5790F0B92F992763
:10174000B751A0F0D1F0660F771F881F991F1AF0CC
:10175000BA95C9F712C0B13081F03AD0B1E008951E
:1017600037C0672F782F8827B85F39F0B93FCCF39F
:10177000869577956795B395D9F73EF490958095C2
:10178000709561957F4F8F4F9F4F089557FD9058EB
:10179000440F551F59F05F3F71F04795880F97FB35
:1017A000991F61F09F3F79F08795089512161306EF
:1017B0001406551FF2CF4695F1DF08C0161617061E
:1017C0001806991FF1CF8695710561050894089553
:1017D000E894BB2766277727CB0197F9089597FBF5
:1017E000072E16F4009407D077FD09D00E94250C2F
:1017F00007FC05D03EF4909581959F4F0895709514
:1018000061957F4F0895A1E21A2EAA1BBB1BFD0113
:101810000DC0AA1FBB1FEE1FFF1FA217B307E407CF
:10182000F50720F0A21BB30BE40BF50B661F771F27
:10183000881F991F1A9469F7609570958095909507
:101840009B01AC01BD01CF010895AA1BBB1B51E157
:1018500007C0AA1FBB1FA617B70710F0A61BB70B20
:10186000881F991F5A95A9F780959095BC01CD01C5
:101870000895EE0FFF1F0590F491E02D099411E0FB
:10188000C2E6D1E004C0FE010E943B0C2296C436A1
:08189000D107C9F7F894FFCF5E
:1018980000070E091C1B1215383F363124232A2D48
:1018A80070777E796C6B6265484F464154535A5D38
:1018B800E0E7EEE9FCFBF2F5D8DFD6D1C4C3CACD28
:1018C80090979E998C8B8285A8AFA6A1B4B3BABD18
:1018D800C7C0C9CEDBDCD5D2FFF8F1F6E3E4EDEA08
:1018E800B7B0B9BEABACA5A28F88818693949D9AF8
:1018F8002720292E3B3C35321F18111603040D0AE8
:101908005750595E4B4C45426F68616673747D7AD7
:10191800898E878095929B9CB1B6BFB8ADAAA3A4C7
:10192800F9FEF7F0E5E2EBECC1C6CFC8DDDAD3D4B7
:10193800696E676075727B7C51565F584D4A4344A7
:10194800191E171005020B0C21262F283D3A333497
:101958004E49404752555C5B7671787F6A6D646387
:101968003E39303722252C2B0601080F1A1D141377
:10197800AEA9A0A7B2B5BCBB9691989F8A8D848367
:10198800DED9D0D7C2C5CCCBE6E1E8EFFAFDF4F357
:10199800000000001F0579086C041F0442045D0460
:1019A80000000000F30979089509C409A809E809A5
:00000001FF
