:100000000C94B2000C94DA000C94DA000C94730493
:100010000C9497040C94BB040C94DA000C94DA0052
:100020000C94DA000C94DA000C94DA000C94DA00E8
:100030000C94DA000C94DA000C94DA000C94DA00D8
:100040000C94C7060C94DA000C9416090C94590908
:100050000C94DA000C94DA000C94DA000C94DA00B8
:100060000C94DA000C94DA0000C2010001001100C7
:1000700011000C0000E100000A002500250021000D
:10008000009600001900390039003600127A00008D
:100090001F004600460044008070000022004D0012
:1000A0004D004A00004B00003600750075007200DC
:1000B000403800004A009C009C0099008025000008
:1000C0007200EC00EC00E900C0120000E900DA0167
:1000D000DA01D70160090000D701B603B603B30304
:1000E000B0040000B3036E076E076B0758020000F0
:1000F0006E07DC0EDC0ED80E2C010000DC0EC11DDC
:10010000C11DBE1D0000000700020100000304061F
:1001100000000000000000000102040810204080E0
:100120000102040810200102040810200404040441
:100130000404040402020202020203030303030391
:100140000000000023002600290000000000250018
:1001500028002B0000000000240027002A002101B5
:10016000170A280111241FBECFEFD8E0DEBFCDBF94
:1001700012E0A0E0B1E0E2E6F6E102C005900D92E7
:10018000A032B107D9F714E0A0E2B2E001C01D929D
:10019000AF34B107E1F711E0C2E6D1E004C0229725
:1001A000FE010E94200BCE35D107C9F70E946D0ACF
:1001B0000C94240B0C94000040E052EC61E070E0E1
:1001C00085EA93E00E94940985EA93E00E94150A6B
:1001D0008823D1F340E051EE60E070E080E292E0ED
:1001E0000C945D0580E292E00E9404036CE372E0EF
:1001F0000E946301882321F08CE392E00C946B024F
:10020000089580E292E00E945103892B11F00E9430
:10021000F2004AE050E060E070E085EA93E00E947E
:1002200060084AE050E060E070E085EA93E00E94F8
:1002300060084AE050E060E070E085EA93E00C94EA
:10024000600820E04BE06AE080E292E00C942D052B
:1002500080E292E00C942706CF93DF93CDB7DEB710
:10026000CA50D1400FB6F894DEBF0FBECDBF8CE3AD
:10027000898382E28A838FE290E09C838B838AE089
:100280009CEDA1EDBAEC8D839E83AF83B887FE0110
:100290003B96CE01C0961192E817F907E1F70E944C
:1002A0001107609347037093480380934903909329
:1002B0004A03C65FDE4F0FB6F894DEBF0FBECDBF58
:1002C000DF91CF910895FB0190914B03933009F496
:1002D00054C020F49130B1F038F509C0953009F4DC
:1002E000C5C008F49EC0963009F0E3C0DBC08C3373
:1002F00009F0DFC091E090934B03808384EB8093FF
:100300004C03D7C0A0914C03A827B0E0A050BF4F2A
:100310009C9190934C03982F987F903229F592E00E
:1003200090934B03818326C0A0914C03A827B0E093
:10033000A050BF4F9C9190934C0390914D039F5FB1
:1003400090934D03923018F482831382B2C0382FF9
:1003500020E082819381820F931F938382830A9787
:100360008F3F910521F018F010924B03A2C083E05B
:1003700080934B0310924D039CC0A0914C03A8277F
:10038000B0E0A050BF4F9C9190934C0320914D033F
:100390002F5F20934D03223099F020F4213009F093
:1003A00088C006C02330A1F0243009F082C023C0E9
:1003B00090E0A0E0B0E084839583A683B78379C002
:1003C00090E0A0E0B0E0BA2FA92F982F882706C0B0
:1003D00090E0A0E0B0E0DC019927882744815581B6
:1003E00066817781480F591F6A1F7B1F448355839D
:1003F000668377835EC090E0A0E0B0E0B82FAA27C4
:10040000992788274481558166817781480F591F34
:100410006A1F7B1F448355836683778320934B0336
:10042000A9CFA0914C03A827B0E0A050BF4F9C914A
:1004300090934C0390914D039F5F90934D039130A7
:1004400019F09230B1F503C08087118632C0382F81
:1004500020E080859185820F931F9187808782811C
:1004600093810A9709F41CC085E082CFA0914C03C8
:10047000A827B0E0A050BF4F9C9190934C032091CF
:100480004D032F5F20934D0330E0DB01A20FB31F1C
:1004900019968C93828193810A972817390748F01F
:1004A00086E066CFDB01A75FBE4F8C9387E0809329
:1004B0004B0380914B03873011F080E00895109238
:1004C0004B03DF01A75FBE4F90914C038C919813B3
:1004D000F4CF82810895CF92DF92EF92FF92CF9373
:1004E000DF93EC014C815D816E817F814A358BEB1E
:1004F000580787E3680787E6780739F04436594D8F
:10050000604E774D09F047C01CC08EA5823031F097
:10051000833051F081113FC081E001C083E08093BE
:1005200046030E942C0137C0809346030E941107A6
:1005300060934E0370934F03809350039093510345
:100540002AC00E94110760934E0370934F0380935B
:100550005003909351036A8D7B8D8C8D9D8D0E94ED
:100560007A0A70935303609352036E8D7F8D88A136
:1005700099A10E947A0A70935503609354036AA16B
:100580007BA18CA19DA10E947A0A7093570360936E
:100590005603C1E001C0C0E0C0904E03D0904F03AD
:1005A000E0905003F090510380E1C80E87E2D81E1E
:1005B000E11CF11C0E941107C616D706E806F906D1
:1005C00018F410924603C1E0C0904703D09048034E
:1005D000E0904903F0904A0388EEC80E83E0D81EED
:1005E000E11CF11C0E941107C616D706E806F906A1
:1005F00010F40E942C018C2F90E0DF91CF91FF909E
:10060000EF90DF90CF90089520919A0330919B0353
:1006100028173907C1F4909158038091590398170E
:1006200091F0E0915803F0E0E65AFC4F8081209170
:10063000580330E02F5F3F4F2F7333272093580329
:10064000282F30E002C02FEF3FEFC901089520911D
:100650009A0330919B032817390781F4909158032E
:1006600080915903981751F0E0915803F0E0E65A51
:10067000FC4F2081332727FD309502C02FEF3FEF3D
:10068000C901089520919A0330919B0328173907D7
:1006900039F48FB7F89410925903109258038FBF12
:1006A000089520919A0330919B032817390779F414
:1006B000809159032091580390E0805C9F4F821BEA
:1006C000910960E470E00E94D40A9C0102C020E01D
:1006D00030E0C9010895DC015196ED91FC915297EB
:1006E000208150968C91809582238083089520E00C
:1006F00001972FEF8F3F9207D9F7089520919A0322
:1007000030919B032817390789F0FC01238D2E7F38
:10071000238F2FB7F8941092590310925803909397
:100720009B0380939A032FBF81E0089580E0089592
:10073000EF92FF920F931F93CF93DF93EC018B8D7A
:10074000EE85FF859D8581FF04C08081892329F482
:1007500045C08081892309F041C08B899C890E9412
:10076000770308E010E0EE24E394F12C8D899E8954
:100770000E947703EE85FF8580819D85892311F096
:10078000FE2803C08E2D8095F822EE0C0150110931
:1007900069F78F89988D0E9477038B8D81FDF09486
:1007A000809159032091580390E001968F73992707
:1007B00030E08217930779F0E0915903F0E0E65AB0
:1007C000FC4FF0828091590390E001968F73992736
:1007D0008093590303C08B8D81608B8FDF91CF9104
:1007E0001F910F91FF90EF900895611102C00C943A
:1007F0006B03DC015196ED91FC915297208150964C
:100800008C91282B20830895DF92EF92FF920F9313
:100810001F93CF93DF93EC01E62E898D9A8D892B60
:1008200039F481E090E09B838A8320E030E049C086
:10083000DFB6F8946B8D66956170CE010E94F5036A
:10084000898D9A8D05960E9477038B8D08E010E0C4
:10085000FF24F39481FF17C08F2D8E2121F0CE014C
:100860000E946B0304C061E0CE010E94F503898DF4
:100870009A8D0E947703FF0C0150110969F7CE0190
:100880000E946B0317C08F2D8E2129F061E0CE01ED
:100890000E94F50303C0CE010E946B03898D9A8DDF
:1008A0000E947703FF0C0150110969F761E0CE0146
:1008B0000E94F503DFBE898D9A8D0E94770321E0A7
:1008C00030E0C901DF91CF911F910F91FF90EF9020
:1008D000DF90089580919A0390919B03009711F007
:1008E0000C94980308951F920F920FB60F92112443
:1008F0002F933F934F935F936F937F938F939F9328
:10090000AF93BF93EF93FF930E946A04FF91EF911F
:10091000BF91AF919F918F917F916F915F914F9117
:100920003F912F910F900FBE0F901F9018951F921F
:100930000F920FB60F9211242F933F934F935F9313
:100940006F937F938F939F93AF93BF93EF93FF9397
:100950000E946A04FF91EF91BF91AF919F918F9197
:100960007F916F915F914F913F912F910F900FBEAB
:100970000F901F9018951F920F920FB60F9211248F
:100980002F933F934F935F936F937F938F939F9397
:10099000AF93BF93EF93FF930E946A04FF91EF918F
:1009A000BF91AF919F918F917F916F915F914F9187
:1009B0003F912F910F900FBE0F901F9018951F938E
:1009C000CF93DF93EC01162F61E0812F0E94580630
:1009D00061E0812F0E949006812F90E0FC01E85E8B
:1009E000FE4FE491E88BFC01E45DFE4FE491F0E002
:1009F000EE0FFF1FE65BFE4F85919491898B9A8BDA
:100A0000DF91CF911F9108951F93CF93DF93EC0156
:100A1000162F60E0812F0E9458068B8D81FD04C047
:100A200061E0812F0E9490061C87812F90E0FC01DD
:100A3000E85EFE4FE491ED87FC01E45DFE4FE4913A
:100A4000F0E0EE0FFF1FE05CFE4F859194918E87E2
:100A50009F87DF91CF911F910895FF920F931F936E
:100A6000CF93DF93EC01F62E522F1B821A8208EEF1
:100A700013E020E030E00C831D832E833F8384E06D
:100A800092E0998388831C8A1B8A1E8A1D8A188E8D
:100A90001F8A1A8E198E8B8D8E7F50FB81F98B8F5A
:100AA000642FCE010E94DF046F2DCE01DF91CF9124
:100AB0001F910F91FF900C940405FF920F931F93C9
:100AC000CF93DF93EC011A8E198E188E1F8A1E8A1F
:100AD0001D8A1C8A1B8AA0E0B0E02CE0F22EFA9E50
:100AE000C001FB9E900D1124FC01E859FF4F0591B8
:100AF0001591259134910417150726073707E9F456
:100B0000FC01E459FF4F259134912B8B3C8BFC0168
:100B1000E259FF4F259134912D8B3E8BFC01E0591A
:100B2000FF4F259134912F8B388F8E589F4FFC01AA
:100B300085919491898F9A8F05C01196AD30B1053A
:100B400009F0CDCF8F89988D892B09F449C03C8558
:100B5000363108F041C040916800383068F081E0DB
:100B600090E03E3010F480E090E021E030E001C001
:100B7000220F8A95EAF701C024E0242B2093680015
:100B80003C85383038F03E3040F0363148F0E0E017
:100B9000F0E008C0EDE6F0E005C0EBE6F0E002C0F2
:100BA000ECE6F0E04081383040F481E090E0282F1E
:100BB00001C0220F3A95EAF70DC0832F90E03E3036
:100BC00010F4089701C00E9721E030E001C0220F19
:100BD0008A95EAF7242B2083898D9A8D0E947703CA
:100BE000CE01DF91CF911F910F91FF900C947E0366
:100BF000FC014485463150F5483028F04E3030F441
:100C0000EBE6F0E005C0EDE6F0E002C0ECE6F0E077
:100C10005081483040F481E090E0042E01C0880FFC
:100C20000A94EAF710C0242F30E04E3018F4285010
:100C3000310902C02E50310981E090E0022E01C03E
:100C4000880F0A94EAF7809585238083089524E02D
:100C500032E0FC01318320830C94F805833069F085
:100C600028F48130A1F0823011F514C08630B1F043
:100C70008730C1F08430D9F404C0809180008F7730
:100C800003C0809180008F7D80938000089584B59B
:100C90008F7702C084B58F7D84BD08958091B000A8
:100CA0008F7703C08091B0008F7D8093B00008954E
:100CB000CF93DF9390E0FC01E85EFE4F4491FC018E
:100CC000E45DFE4F8491882341F190E0880F991FE5
:100CD000FC01EC5AFE4F25913491D901865B9E4F61
:100CE000FC0185919491C82FD92F9FB7F8948C91CE
:100CF000611106C0409584238C938881842308C0A9
:100D0000623041F4242F209582238C938881842B98
:100D1000888302C0842B8C939FBFDF91CF9108956D
:100D20000F931F93CF93DF931F92CDB7DEB7282F7A
:100D300030E0F901EC5FFE4F8491F901E85EFE4F6F
:100D40001491F901E45DFE4F04910023D1F0882352
:100D500021F069830E942E066981E02FF0E0EE0FFA
:100D6000FF1FE65BFE4F85919491DC019FB7F894DD
:100D70008C91611103C01095812301C0812B8C934C
:100D80009FBF0F90DF91CF911F910F9108951F92F8
:100D90000F920FB60F9211242F933F938F939F932F
:100DA000AF93BF9380919C0390919D03A0919E036C
:100DB000B0919F033091A403232F2D5F2D3720F492
:100DC0000196A11DB11D05C0232F2A570296A11D12
:100DD000B11D2093A40380939C0390939D03A09343
:100DE0009E03B0939F038091A0039091A103A091D3
:100DF000A203B091A3030196A11DB11D8093A0038E
:100E00009093A103A093A203B093A303BF91AF91CA
:100E10009F918F913F912F910F900FBE0F901F9038
:100E200018950F931F938FB7F89400919C0310911E
:100E30009D0320919E0330919F038FBFB801C9018C
:100E40001F910F910895789484B5826084BD84B514
:100E5000816084BD85B5826085BD85B5816085BDB5
:100E6000EEE6F0E0808181608083E1E8F0E01082CE
:100E7000808182608083808181608083E0E8F0E00F
:100E8000808181608083E1EBF0E0808184608083F9
:100E9000E0EBF0E0808181608083EAE7F0E0808130
:100EA0008460808380818260808380818160808390
:100EB0008081806880831092C1000895CF92DF9274
:100EC000EF92FF920F931F93CF93DF936C01EB018F
:100ED0007A01E60EF71E00E010E00BC06991D60122
:100EE000ED91FC910190F081E02DC6010995080F6C
:100EF000191FCE15DF0591F7C801DF91CF911F9122
:100F00000F91FF90EF90DF90CF90089561157105DC
:100F100081F0DB010D900020E9F7AD01415051094E
:100F2000461B570BDC01ED91FC910280F381E02D13
:100F3000099480E090E00895DC01ED91FC9101902E
:100F4000F081E02D09940F931F93CF93DF93EC0171
:100F50006DE00E949C078C016AE0CE010E949C0714
:100F60009C01200F311FC901DF91CF911F910F917B
:100F700008954F925F926F927F929F92AF92BF922D
:100F8000CF92DF92EF92FF920F931F93CF93DF9355
:100F9000CDB7DEB7A1970FB6F894DEBF0FBECDBFB9
:100FA0005C016A017B01922E19A281E0821710F088
:100FB0008AE0982E8E010F5D1F4F492C512C612C19
:100FC000712CC701B601A30192010E94E80A8C2D81
:100FD000929E80191124015011098A3014F4805D09
:100FE00001C0895CF801808369017A01C114D104D0
:100FF000E104F10431F7B801C5010E948607A1960A
:101000000FB6F894DEBF0FBECDBFDF91CF911F9119
:101010000F91FF90EF90DF90CF90BF90AF909F9097
:101020007F906F905F904F900895CF92DF92EF92F4
:10103000FF920F931F93CF93DF93EC016A017B0123
:101040002115310579F4E881F9810190F081E02DD5
:10105000642FDF91CF911F910F91FF90EF90DF9060
:10106000CF9009942A30310519F477FD0EC02AE09B
:10107000B701A601CE01DF91CF911F910F91FF9093
:10108000EF90DF90CF900C94B9076DE20E949C071F
:101090008C0144275527BA014C195D096E097F0957
:1010A0002AE0CE010E94B907080F191FC801DF917D
:1010B000CF911F910F91FF90EF90DF90CF90089507
:1010C0000F931F93CF93DF93EC019A01AB01662737
:1010D00057FD6095762F0E9415088C01CE010E9465
:1010E000A3079801280F391FC901DF91CF911F91E4
:1010F0000F910895FC0184859585FC01E05CFF4F0C
:1011000020813181FC01EE5BFF4F80819181281BA2
:10111000390B2F733327C9010895FC018485958508
:10112000FC01E05CFF4F40815181FC01EE5BFF4F11
:10113000208131814217530741F00190F081E02D69
:10114000E80FF91F208130E002C02FEF3FEFC90107
:101150000895FC0184859585FC01E05CFF4F40818A
:101160005181FC01EE5BFF4F208131814217530713
:1011700081F0A081B181A80FB91F8C9120813181AC
:101180002F5F3F4F2F73332731832083282F30E089
:1011900002C02FEF3FEFC9010895FC0181A1882310
:1011A00029F0A489B5898C9186FFFBCF11A20895FF
:1011B000CF93DF93FC0126853785D901A05CBF4F13
:1011C0008D919C91119701968F739927E901CE5BC0
:1011D000DF4F4881598184179507D9F30D90BC9151
:1011E000A02DA20FB31F6C93A685B785A05CBF4F3F
:1011F00011969C938E93A689B7892C9181E090E0FB
:10120000078C02C0880F991F0A94E2F7282B2C93B1
:1012100081E081A30488F589E02D8081806480834A
:1012200081E090E0DF91CF91089508951F920F9291
:101230000FB60F9211242F933F934F938F939F9349
:10124000EF93FF938091C00082FD1CC04091C600C7
:1012500080914B0490914C0401968F7399272091B3
:101260004D0430914E048217930771F0E0914B04C6
:10127000F0914C04E55FFB4F408390934C048093C6
:101280004B0402C08091C600FF91EF919F918F9116
:101290004F913F912F910F900FBE0F901F90189577
:1012A00085EA93E00E947A08892B11F00C941509C5
:1012B00008951F920F920FB60F9211242F933F9310
:1012C0008F939F93EF93FF9320910704309108042D
:1012D0008091090490910A042817390731F480910C
:1012E000C1008F7D8093C10014C0E0910904F0918A
:1012F0000A04E953FC4F20818091090490910A046B
:1013000001968F73992790930A0480930904209380
:10131000C600FF91EF919F918F913F912F910F9078
:101320000FBE0F901F901895CF92DF92EF92FF9211
:10133000CF93DF93EC016A017B01411581EE5807E1
:1013400061057105F9F0EC89FD8981E090E008A064
:1013500002C0880F991F0A94E2F7808360E079E069
:101360008DE390E0A70196010E94E80A215031091F
:10137000410951095695479537952795211580E1E3
:10138000380798F0EC89FD89108260E874E88EE1F6
:1013900090E0A70196010E94E80A21503109410915
:1013A00051095695479537952795E889F9893083EE
:1013B000EA89FB89208319A2EE89FF89408181E0B7
:1013C00090E09C010C8C02C0220F331F0A94E2F7BC
:1013D000422B4083EE89FF8940819C010D8C02C025
:1013E000220F331F0A94E2F7422B4083EE89FF89D4
:1013F00040819C010E8C02C0220F331F0A94E2F739
:10140000422B4083EE89FF8920810F8C02C0880F18
:10141000991F0A94E2F7809582238083DF91CF9110
:10142000FF90EF90DF90CF90089581E008951092A3
:10143000A8031092A70388EE93E0A0E0B0E08093A9
:10144000A9039093AA03A093AB03B093AC0384E1E8
:1014500092E09093A6038093A5038BE094E0909391
:10146000B2038093B10387EC93E09093B40380932D
:10147000B30385EC90E09093B6038093B50384ECBE
:1014800090E09093B8038093B70380EC90E0909342
:10149000BA038093B90381EC90E09093BC038093EE
:1014A000BB0382EC90E09093BE038093BD0386EC77
:1014B00090E09093C0038093BF0384E08093C103C6
:1014C00083E08093C20387E08093C30385E0809329
:1014D000C40381E08093C50308950E9423070E94FE
:1014E000DC00C0E5D9E00E9401012097E1F30E94F1
:1014F0005009F9CF04D06894B11150C0089533D089
:1015000088F09F5790F0B92F9927B751A0F0D1F0EC
:10151000660F771F881F991F1AF0BA95C9F712C076
:10152000B13081F03AD0B1E0089537C0672F782FFD
:101530008827B85F39F0B93FCCF3869577956795E2
:10154000B395D9F73EF490958095709561957F4F4E
:101550008F4F9F4F089557FD9058440F551F59F0D6
:101560005F3F71F04795880F97FB991F61F09F3F90
:1015700079F087950895121613061406551FF2CFB9
:101580004695F1DF08C0161617061806991FF1CF09
:1015900086957105610508940895E894BB27662730
:1015A0007727CB0197F9089597FB072E16F400943F
:1015B00007D077FD09D00E940A0B07FC05D03EF446
:1015C000909581959F4F0895709561957F4F0895EF
:1015D000A1E21A2EAA1BBB1BFD010DC0AA1FBB1F37
:1015E000EE1FFF1FA217B307E407F50720F0A21BA9
:1015F000B30BE40BF50B661F771F881F991F1A9416
:1016000069F760957095809590959B01AC01BD013F
:10161000CF010895AA1BBB1B51E107C0AA1FBB1F26
:10162000A617B70710F0A61BB70B881F991F5A956E
:10163000A9F780959095BC01CD010895EE0FFF1F8D
:101640000590F491E02D099411E0C2E6D1E004C0C8
:10165000FE010E94200B2296C436D107C9F7F894E8
:02166000FFCFBA
:1016620000070E091C1B1215383F363124232A2D80
:1016720070777E796C6B6265484F464154535A5D70
:10168200E0E7EEE9FCFBF2F5D8DFD6D1C4C3CACD60
:1016920090979E998C8B8285A8AFA6A1B4B3BABD50
:1016A200C7C0C9CEDBDCD5D2FFF8F1F6E3E4EDEA40
:1016B200B7B0B9BEABACA5A28F88818693949D9A30
:1016C2002720292E3B3C35321F18111603040D0A20
:1016D2005750595E4B4C45426F68616673747D7A10
:1016E200898E878095929B9CB1B6BFB8ADAAA3A400
:1016F200F9FEF7F0E5E2EBECC1C6CFC8DDDAD3D4F0
:10170200696E676075727B7C51565F584D4A4344DF
:10171200191E171005020B0C21262F283D3A3334CF
:101722004E49404752555C5B7671787F6A6D6463BF
:101732003E39303722252C2B0601080F1A1D1413AF
:10174200AEA9A0A7B2B5BCBB9691989F8A8D84839F
:10175200DED9D0D7C2C5CCCBE6E1E8EFFAFDF4F38F
:101762000000000004045E07510304032703420340
:1017720000000000D8085E077A08A9088D08CD0885
:00000001FF
